{
  "contractName": "LPTokenWrapper",
  "abi": [
    {
      "inputs": [],
      "name": "vote",
      "outputs": [
        {
          "internalType": "contract IERC20",
          "name": "",
          "type": "address"
        }
      ],
      "stateMutability": "view",
      "type": "function"
    },
    {
      "inputs": [],
      "name": "totalSupply",
      "outputs": [
        {
          "internalType": "uint256",
          "name": "",
          "type": "uint256"
        }
      ],
      "stateMutability": "view",
      "type": "function"
    },
    {
      "inputs": [
        {
          "internalType": "address",
          "name": "account",
          "type": "address"
        }
      ],
      "name": "balanceOf",
      "outputs": [
        {
          "internalType": "uint256",
          "name": "",
          "type": "uint256"
        }
      ],
      "stateMutability": "view",
      "type": "function"
    },
    {
      "inputs": [
        {
          "internalType": "uint256",
          "name": "amount",
          "type": "uint256"
        }
      ],
      "name": "stake",
      "outputs": [],
      "stateMutability": "nonpayable",
      "type": "function"
    },
    {
      "inputs": [
        {
          "internalType": "uint256",
          "name": "amount",
          "type": "uint256"
        }
      ],
      "name": "withdraw",
      "outputs": [],
      "stateMutability": "nonpayable",
      "type": "function"
    }
  ],
  "bytecode": "0x6080604052600080546001600160a01b03191673a1d0e215a23d7030842fc67ce582a6afa3ccab8317905534801561003657600080fd5b50610699806100466000396000f3fe608060405234801561001057600080fd5b50600436106100575760003560e01c806318160ddd1461005c5780632e1a7d4d14610076578063632a9a521461009557806370a08231146100b9578063a694fc3a146100df575b600080fd5b6100646100fc565b60408051918252519081900360200190f35b6100936004803603602081101561008c57600080fd5b5035610102565b005b61009d61015a565b604080516001600160a01b039092168252519081900360200190f35b610064600480360360208110156100cf57600080fd5b50356001600160a01b0316610169565b610093600480360360208110156100f557600080fd5b5035610184565b60015490565b60015461010f90826101da565b6001553360009081526002602052604090205461012c90826101da565b336000818152600260205260408120929092559054610157916001600160a01b039091169083610223565b50565b6000546001600160a01b031681565b6001600160a01b031660009081526002602052604090205490565b600154610191908261027a565b600155336000908152600260205260409020546101ae908261027a565b336000818152600260205260408120929092559054610157916001600160a01b039091169030846102d4565b600061021c83836040518060400160405280601e81526020017f536166654d6174683a207375627472616374696f6e206f766572666c6f770000815250610334565b9392505050565b604080516001600160a01b038416602482015260448082018490528251808303909101815260649091019091526020810180516001600160e01b031663a9059cbb60e01b1790526102759084906103cb565b505050565b60008282018381101561021c576040805162461bcd60e51b815260206004820152601b60248201527f536166654d6174683a206164646974696f6e206f766572666c6f770000000000604482015290519081900360640190fd5b604080516001600160a01b0380861660248301528416604482015260648082018490528251808303909101815260849091019091526020810180516001600160e01b03166323b872dd60e01b17905261032e9085906103cb565b50505050565b600081848411156103c35760405162461bcd60e51b81526004018080602001828103825283818151815260200191508051906020019080838360005b83811015610388578181015183820152602001610370565b50505050905090810190601f1680156103b55780820380516001836020036101000a031916815260200191505b509250505060405180910390fd5b505050900390565b6060610420826040518060400160405280602081526020017f5361666545524332303a206c6f772d6c6576656c2063616c6c206661696c6564815250856001600160a01b031661047c9092919063ffffffff16565b8051909150156102755780806020019051602081101561043f57600080fd5b50516102755760405162461bcd60e51b815260040180806020018281038252602a81526020018061063a602a913960400191505060405180910390fd5b606061048b8484600085610493565b949350505050565b606061049e85610600565b6104ef576040805162461bcd60e51b815260206004820152601d60248201527f416464726573733a2063616c6c20746f206e6f6e2d636f6e7472616374000000604482015290519081900360640190fd5b60006060866001600160a01b031685876040518082805190602001908083835b6020831061052e5780518252601f19909201916020918201910161050f565b6001836020036101000a03801982511681845116808217855250505050505090500191505060006040518083038185875af1925050503d8060008114610590576040519150601f19603f3d011682016040523d82523d6000602084013e610595565b606091505b509150915081156105a957915061048b9050565b8051156105b95780518082602001fd5b60405162461bcd60e51b8152602060048201818152865160248401528651879391928392604401919085019080838360008315610388578181015183820152602001610370565b6000813f7fc5d2460186f7233c927e7db2dcc703c0e500b653ca82273b7bfad8045d85a47081811480159061048b57505015159291505056fe5361666545524332303a204552433230206f7065726174696f6e20646964206e6f742073756363656564a26469706673582212201edb4f02e3c16efd3fc88b8ae1d54571133880fb596ef3e4ff0472e857485cce64736f6c634300060c0033",
  "immutableReferences": {},
  "source": "// SPDX-License-Identifier: MIT\npragma solidity ^0.6.2;\n\nimport '@openzeppelin/contracts/token/ERC20/IERC20.sol';\nimport '@openzeppelin/contracts/token/ERC20/SafeERC20.sol';\nimport '@openzeppelin/contracts/math/SafeMath.sol';\n\ncontract LPTokenWrapper {\n    using SafeMath for uint256;\n    using SafeERC20 for IERC20;\n\n    IERC20 public vote = IERC20(0xa1d0E215a23d7030842FC67cE582a6aFa3CCaB83);\n\n    uint256 private _totalSupply;\n    mapping(address => uint256) private _balances;\n\n    function totalSupply()\n    public view\n    returns (uint256)\n    {\n        return _totalSupply;\n    }\n\n    function balanceOf(address account)\n    public view\n    returns (uint256)\n    {\n        return _balances[account];\n    }\n\n    function stake(uint256 amount)\n    public\n    virtual\n    {\n        _totalSupply = _totalSupply.add(amount);\n        _balances[msg.sender] = _balances[msg.sender].add(amount);\n        vote.safeTransferFrom(msg.sender, address(this), amount);\n    }\n\n    function withdraw(uint256 amount)\n    public\n    virtual\n    {\n        _totalSupply = _totalSupply.sub(amount);\n        _balances[msg.sender] = _balances[msg.sender].sub(amount);\n        vote.safeTransfer(msg.sender, amount);\n    }\n}",
  "sourcePath": "/Users/sebastian/projects/bancor/gov-contracts/contracts/CurveRewards.sol",
  "compiler": {
    "name": "solc",
    "version": "0.6.12+commit.27d51765.Emscripten.clang"
  },
  "schemaVersion": "3.2.4",
  "updatedAt": "2020-09-09T09:06:47.047Z",
  "devdoc": {
    "kind": "dev",
    "methods": {},
    "version": 1
  },
  "userdoc": {
    "kind": "user",
    "methods": {},
    "version": 1
  }
}