{
  "contractName": "YearnGovernance",
  "abi": [
    {
      "anonymous": false,
      "inputs": [
        {
          "indexed": false,
          "internalType": "uint256",
          "name": "id",
          "type": "uint256"
        },
        {
          "indexed": false,
          "internalType": "address",
          "name": "creator",
          "type": "address"
        },
        {
          "indexed": false,
          "internalType": "uint256",
          "name": "start",
          "type": "uint256"
        },
        {
          "indexed": false,
          "internalType": "uint256",
          "name": "duration",
          "type": "uint256"
        },
        {
          "indexed": false,
          "internalType": "address",
          "name": "executor",
          "type": "address"
        }
      ],
      "name": "NewProposal",
      "type": "event"
    },
    {
      "anonymous": false,
      "inputs": [
        {
          "indexed": true,
          "internalType": "address",
          "name": "previousOwner",
          "type": "address"
        },
        {
          "indexed": true,
          "internalType": "address",
          "name": "newOwner",
          "type": "address"
        }
      ],
      "name": "OwnershipTransferred",
      "type": "event"
    },
    {
      "anonymous": false,
      "inputs": [
        {
          "indexed": true,
          "internalType": "uint256",
          "name": "id",
          "type": "uint256"
        },
        {
          "indexed": false,
          "internalType": "uint256",
          "name": "_for",
          "type": "uint256"
        },
        {
          "indexed": false,
          "internalType": "uint256",
          "name": "_against",
          "type": "uint256"
        },
        {
          "indexed": false,
          "internalType": "bool",
          "name": "quorumReached",
          "type": "bool"
        }
      ],
      "name": "ProposalFinished",
      "type": "event"
    },
    {
      "anonymous": false,
      "inputs": [
        {
          "indexed": false,
          "internalType": "address",
          "name": "voter",
          "type": "address"
        },
        {
          "indexed": false,
          "internalType": "uint256",
          "name": "votes",
          "type": "uint256"
        },
        {
          "indexed": false,
          "internalType": "uint256",
          "name": "totalVotes",
          "type": "uint256"
        }
      ],
      "name": "RegisterVoter",
      "type": "event"
    },
    {
      "anonymous": false,
      "inputs": [
        {
          "indexed": false,
          "internalType": "address",
          "name": "voter",
          "type": "address"
        },
        {
          "indexed": false,
          "internalType": "uint256",
          "name": "votes",
          "type": "uint256"
        },
        {
          "indexed": false,
          "internalType": "uint256",
          "name": "totalVotes",
          "type": "uint256"
        }
      ],
      "name": "RevokeVoter",
      "type": "event"
    },
    {
      "anonymous": false,
      "inputs": [
        {
          "indexed": false,
          "internalType": "uint256",
          "name": "reward",
          "type": "uint256"
        }
      ],
      "name": "RewardAdded",
      "type": "event"
    },
    {
      "anonymous": false,
      "inputs": [
        {
          "indexed": true,
          "internalType": "address",
          "name": "user",
          "type": "address"
        },
        {
          "indexed": false,
          "internalType": "uint256",
          "name": "reward",
          "type": "uint256"
        }
      ],
      "name": "RewardPaid",
      "type": "event"
    },
    {
      "anonymous": false,
      "inputs": [
        {
          "indexed": true,
          "internalType": "address",
          "name": "user",
          "type": "address"
        },
        {
          "indexed": false,
          "internalType": "uint256",
          "name": "amount",
          "type": "uint256"
        }
      ],
      "name": "Staked",
      "type": "event"
    },
    {
      "anonymous": false,
      "inputs": [
        {
          "indexed": true,
          "internalType": "uint256",
          "name": "id",
          "type": "uint256"
        },
        {
          "indexed": true,
          "internalType": "address",
          "name": "voter",
          "type": "address"
        },
        {
          "indexed": false,
          "internalType": "bool",
          "name": "vote",
          "type": "bool"
        },
        {
          "indexed": false,
          "internalType": "uint256",
          "name": "weight",
          "type": "uint256"
        }
      ],
      "name": "Vote",
      "type": "event"
    },
    {
      "anonymous": false,
      "inputs": [
        {
          "indexed": true,
          "internalType": "address",
          "name": "user",
          "type": "address"
        },
        {
          "indexed": false,
          "internalType": "uint256",
          "name": "amount",
          "type": "uint256"
        }
      ],
      "name": "Withdrawn",
      "type": "event"
    },
    {
      "inputs": [],
      "name": "DURATION",
      "outputs": [
        {
          "internalType": "uint256",
          "name": "",
          "type": "uint256"
        }
      ],
      "stateMutability": "view",
      "type": "function",
      "constant": true
    },
    {
      "inputs": [
        {
          "internalType": "address",
          "name": "account",
          "type": "address"
        }
      ],
      "name": "balanceOf",
      "outputs": [
        {
          "internalType": "uint256",
          "name": "",
          "type": "uint256"
        }
      ],
      "stateMutability": "view",
      "type": "function",
      "constant": true
    },
    {
      "inputs": [],
      "name": "breaker",
      "outputs": [
        {
          "internalType": "bool",
          "name": "",
          "type": "bool"
        }
      ],
      "stateMutability": "view",
      "type": "function",
      "constant": true
    },
    {
      "inputs": [],
      "name": "config",
      "outputs": [
        {
          "internalType": "bool",
          "name": "",
          "type": "bool"
        }
      ],
      "stateMutability": "view",
      "type": "function",
      "constant": true
    },
    {
      "inputs": [],
      "name": "governance",
      "outputs": [
        {
          "internalType": "address",
          "name": "",
          "type": "address"
        }
      ],
      "stateMutability": "view",
      "type": "function",
      "constant": true
    },
    {
      "inputs": [],
      "name": "lastUpdateTime",
      "outputs": [
        {
          "internalType": "uint256",
          "name": "",
          "type": "uint256"
        }
      ],
      "stateMutability": "view",
      "type": "function",
      "constant": true
    },
    {
      "inputs": [],
      "name": "lock",
      "outputs": [
        {
          "internalType": "uint256",
          "name": "",
          "type": "uint256"
        }
      ],
      "stateMutability": "view",
      "type": "function",
      "constant": true
    },
    {
      "inputs": [],
      "name": "minimum",
      "outputs": [
        {
          "internalType": "uint256",
          "name": "",
          "type": "uint256"
        }
      ],
      "stateMutability": "view",
      "type": "function",
      "constant": true
    },
    {
      "inputs": [],
      "name": "owner",
      "outputs": [
        {
          "internalType": "address",
          "name": "",
          "type": "address"
        }
      ],
      "stateMutability": "view",
      "type": "function",
      "constant": true
    },
    {
      "inputs": [],
      "name": "period",
      "outputs": [
        {
          "internalType": "uint256",
          "name": "",
          "type": "uint256"
        }
      ],
      "stateMutability": "view",
      "type": "function",
      "constant": true
    },
    {
      "inputs": [],
      "name": "periodFinish",
      "outputs": [
        {
          "internalType": "uint256",
          "name": "",
          "type": "uint256"
        }
      ],
      "stateMutability": "view",
      "type": "function",
      "constant": true
    },
    {
      "inputs": [],
      "name": "proposalCount",
      "outputs": [
        {
          "internalType": "uint256",
          "name": "",
          "type": "uint256"
        }
      ],
      "stateMutability": "view",
      "type": "function",
      "constant": true
    },
    {
      "inputs": [
        {
          "internalType": "uint256",
          "name": "",
          "type": "uint256"
        }
      ],
      "name": "proposals",
      "outputs": [
        {
          "internalType": "uint256",
          "name": "id",
          "type": "uint256"
        },
        {
          "internalType": "address",
          "name": "proposer",
          "type": "address"
        },
        {
          "internalType": "uint256",
          "name": "totalForVotes",
          "type": "uint256"
        },
        {
          "internalType": "uint256",
          "name": "totalAgainstVotes",
          "type": "uint256"
        },
        {
          "internalType": "uint256",
          "name": "start",
          "type": "uint256"
        },
        {
          "internalType": "uint256",
          "name": "end",
          "type": "uint256"
        },
        {
          "internalType": "address",
          "name": "executor",
          "type": "address"
        },
        {
          "internalType": "string",
          "name": "hash",
          "type": "string"
        },
        {
          "internalType": "uint256",
          "name": "totalVotesAvailable",
          "type": "uint256"
        },
        {
          "internalType": "uint256",
          "name": "quorum",
          "type": "uint256"
        },
        {
          "internalType": "uint256",
          "name": "quorumRequired",
          "type": "uint256"
        },
        {
          "internalType": "bool",
          "name": "open",
          "type": "bool"
        }
      ],
      "stateMutability": "view",
      "type": "function",
      "constant": true
    },
    {
      "inputs": [],
      "name": "quorum",
      "outputs": [
        {
          "internalType": "uint256",
          "name": "",
          "type": "uint256"
        }
      ],
      "stateMutability": "view",
      "type": "function",
      "constant": true
    },
    {
      "inputs": [],
      "name": "renounceOwnership",
      "outputs": [],
      "stateMutability": "nonpayable",
      "type": "function"
    },
    {
      "inputs": [],
      "name": "rewardPerTokenStored",
      "outputs": [
        {
          "internalType": "uint256",
          "name": "",
          "type": "uint256"
        }
      ],
      "stateMutability": "view",
      "type": "function",
      "constant": true
    },
    {
      "inputs": [],
      "name": "rewardRate",
      "outputs": [
        {
          "internalType": "uint256",
          "name": "",
          "type": "uint256"
        }
      ],
      "stateMutability": "view",
      "type": "function",
      "constant": true
    },
    {
      "inputs": [
        {
          "internalType": "address",
          "name": "",
          "type": "address"
        }
      ],
      "name": "rewards",
      "outputs": [
        {
          "internalType": "uint256",
          "name": "",
          "type": "uint256"
        }
      ],
      "stateMutability": "view",
      "type": "function",
      "constant": true
    },
    {
      "inputs": [
        {
          "internalType": "address",
          "name": "_rewardDistribution",
          "type": "address"
        }
      ],
      "name": "setRewardDistribution",
      "outputs": [],
      "stateMutability": "nonpayable",
      "type": "function"
    },
    {
      "inputs": [],
      "name": "token",
      "outputs": [
        {
          "internalType": "contract IERC20",
          "name": "",
          "type": "address"
        }
      ],
      "stateMutability": "view",
      "type": "function",
      "constant": true
    },
    {
      "inputs": [],
      "name": "totalSupply",
      "outputs": [
        {
          "internalType": "uint256",
          "name": "",
          "type": "uint256"
        }
      ],
      "stateMutability": "view",
      "type": "function",
      "constant": true
    },
    {
      "inputs": [],
      "name": "totalVotes",
      "outputs": [
        {
          "internalType": "uint256",
          "name": "",
          "type": "uint256"
        }
      ],
      "stateMutability": "view",
      "type": "function",
      "constant": true
    },
    {
      "inputs": [
        {
          "internalType": "address",
          "name": "newOwner",
          "type": "address"
        }
      ],
      "name": "transferOwnership",
      "outputs": [],
      "stateMutability": "nonpayable",
      "type": "function"
    },
    {
      "inputs": [
        {
          "internalType": "address",
          "name": "",
          "type": "address"
        }
      ],
      "name": "userRewardPerTokenPaid",
      "outputs": [
        {
          "internalType": "uint256",
          "name": "",
          "type": "uint256"
        }
      ],
      "stateMutability": "view",
      "type": "function",
      "constant": true
    },
    {
      "inputs": [],
      "name": "vote",
      "outputs": [
        {
          "internalType": "contract IERC20",
          "name": "",
          "type": "address"
        }
      ],
      "stateMutability": "view",
      "type": "function",
      "constant": true
    },
    {
      "inputs": [
        {
          "internalType": "address",
          "name": "",
          "type": "address"
        }
      ],
      "name": "voteLock",
      "outputs": [
        {
          "internalType": "uint256",
          "name": "",
          "type": "uint256"
        }
      ],
      "stateMutability": "view",
      "type": "function",
      "constant": true
    },
    {
      "inputs": [
        {
          "internalType": "address",
          "name": "",
          "type": "address"
        }
      ],
      "name": "voters",
      "outputs": [
        {
          "internalType": "bool",
          "name": "",
          "type": "bool"
        }
      ],
      "stateMutability": "view",
      "type": "function",
      "constant": true
    },
    {
      "inputs": [
        {
          "internalType": "address",
          "name": "",
          "type": "address"
        }
      ],
      "name": "votes",
      "outputs": [
        {
          "internalType": "uint256",
          "name": "",
          "type": "uint256"
        }
      ],
      "stateMutability": "view",
      "type": "function",
      "constant": true
    },
    {
      "inputs": [
        {
          "internalType": "contract IERC20",
          "name": "_token",
          "type": "address"
        },
        {
          "internalType": "uint256",
          "name": "amount",
          "type": "uint256"
        }
      ],
      "name": "seize",
      "outputs": [],
      "stateMutability": "nonpayable",
      "type": "function"
    },
    {
      "inputs": [
        {
          "internalType": "bool",
          "name": "_breaker",
          "type": "bool"
        }
      ],
      "name": "setBreaker",
      "outputs": [],
      "stateMutability": "nonpayable",
      "type": "function"
    },
    {
      "inputs": [
        {
          "internalType": "address",
          "name": "_governance",
          "type": "address"
        }
      ],
      "name": "setGovernance",
      "outputs": [],
      "stateMutability": "nonpayable",
      "type": "function"
    },
    {
      "inputs": [
        {
          "internalType": "uint256",
          "name": "_quorum",
          "type": "uint256"
        }
      ],
      "name": "setQuorum",
      "outputs": [],
      "stateMutability": "nonpayable",
      "type": "function"
    },
    {
      "inputs": [
        {
          "internalType": "uint256",
          "name": "_minimum",
          "type": "uint256"
        }
      ],
      "name": "setMinimum",
      "outputs": [],
      "stateMutability": "nonpayable",
      "type": "function"
    },
    {
      "inputs": [
        {
          "internalType": "uint256",
          "name": "_period",
          "type": "uint256"
        }
      ],
      "name": "setPeriod",
      "outputs": [],
      "stateMutability": "nonpayable",
      "type": "function"
    },
    {
      "inputs": [
        {
          "internalType": "uint256",
          "name": "_lock",
          "type": "uint256"
        }
      ],
      "name": "setLock",
      "outputs": [],
      "stateMutability": "nonpayable",
      "type": "function"
    },
    {
      "inputs": [
        {
          "internalType": "uint256",
          "name": "id",
          "type": "uint256"
        }
      ],
      "name": "initialize",
      "outputs": [],
      "stateMutability": "nonpayable",
      "type": "function"
    },
    {
      "inputs": [
        {
          "internalType": "address",
          "name": "executor",
          "type": "address"
        },
        {
          "internalType": "string",
          "name": "hash",
          "type": "string"
        }
      ],
      "name": "propose",
      "outputs": [],
      "stateMutability": "nonpayable",
      "type": "function"
    },
    {
      "inputs": [
        {
          "internalType": "uint256",
          "name": "id",
          "type": "uint256"
        }
      ],
      "name": "execute",
      "outputs": [],
      "stateMutability": "nonpayable",
      "type": "function"
    },
    {
      "inputs": [
        {
          "internalType": "uint256",
          "name": "id",
          "type": "uint256"
        }
      ],
      "name": "getStats",
      "outputs": [
        {
          "internalType": "uint256",
          "name": "_for",
          "type": "uint256"
        },
        {
          "internalType": "uint256",
          "name": "_against",
          "type": "uint256"
        },
        {
          "internalType": "uint256",
          "name": "_quorum",
          "type": "uint256"
        }
      ],
      "stateMutability": "view",
      "type": "function",
      "constant": true
    },
    {
      "inputs": [
        {
          "internalType": "uint256",
          "name": "id",
          "type": "uint256"
        }
      ],
      "name": "tallyVotes",
      "outputs": [],
      "stateMutability": "nonpayable",
      "type": "function"
    },
    {
      "inputs": [
        {
          "internalType": "address",
          "name": "voter",
          "type": "address"
        }
      ],
      "name": "votesOf",
      "outputs": [
        {
          "internalType": "uint256",
          "name": "",
          "type": "uint256"
        }
      ],
      "stateMutability": "view",
      "type": "function",
      "constant": true
    },
    {
      "inputs": [],
      "name": "register",
      "outputs": [],
      "stateMutability": "nonpayable",
      "type": "function"
    },
    {
      "inputs": [],
      "name": "revoke",
      "outputs": [],
      "stateMutability": "nonpayable",
      "type": "function"
    },
    {
      "inputs": [
        {
          "internalType": "uint256",
          "name": "id",
          "type": "uint256"
        }
      ],
      "name": "voteFor",
      "outputs": [],
      "stateMutability": "nonpayable",
      "type": "function"
    },
    {
      "inputs": [
        {
          "internalType": "uint256",
          "name": "id",
          "type": "uint256"
        }
      ],
      "name": "voteAgainst",
      "outputs": [],
      "stateMutability": "nonpayable",
      "type": "function"
    },
    {
      "inputs": [],
      "name": "lastTimeRewardApplicable",
      "outputs": [
        {
          "internalType": "uint256",
          "name": "",
          "type": "uint256"
        }
      ],
      "stateMutability": "view",
      "type": "function",
      "constant": true
    },
    {
      "inputs": [],
      "name": "rewardPerToken",
      "outputs": [
        {
          "internalType": "uint256",
          "name": "",
          "type": "uint256"
        }
      ],
      "stateMutability": "view",
      "type": "function",
      "constant": true
    },
    {
      "inputs": [
        {
          "internalType": "address",
          "name": "account",
          "type": "address"
        }
      ],
      "name": "earned",
      "outputs": [
        {
          "internalType": "uint256",
          "name": "",
          "type": "uint256"
        }
      ],
      "stateMutability": "view",
      "type": "function",
      "constant": true
    },
    {
      "inputs": [
        {
          "internalType": "uint256",
          "name": "amount",
          "type": "uint256"
        }
      ],
      "name": "stake",
      "outputs": [],
      "stateMutability": "nonpayable",
      "type": "function"
    },
    {
      "inputs": [
        {
          "internalType": "uint256",
          "name": "amount",
          "type": "uint256"
        }
      ],
      "name": "withdraw",
      "outputs": [],
      "stateMutability": "nonpayable",
      "type": "function"
    },
    {
      "inputs": [],
      "name": "exit",
      "outputs": [],
      "stateMutability": "nonpayable",
      "type": "function"
    },
    {
      "inputs": [],
      "name": "getReward",
      "outputs": [],
      "stateMutability": "nonpayable",
      "type": "function"
    },
    {
      "inputs": [
        {
          "internalType": "uint256",
          "name": "reward",
          "type": "uint256"
        }
      ],
      "name": "notifyRewardAmount",
      "outputs": [],
      "stateMutability": "nonpayable",
      "type": "function"
    }
  ],
  "bytecode": "0x6080604052600080546001600160a01b031990811673a1d0e215a23d7030842fc67ce582a6afa3ccab831782556004805460ff60a01b191690556005805490911673df5e0e81dff6faf3a7e52ba697820c5e32d806a81790556006819055600755614380600b819055600c55670de0b6b3a7640000600d556107d0600e55600f805460ff1916600117905534801561009657600080fd5b5060006100a16100f4565b600380546001600160a01b0319166001600160a01b038316908117909155604051919250906000907f8be0079c531659141344cd1fd0a4f28419497f9722a3daafe3b4186f6b6457e0908290a3506100f8565b3390565b612b07806101076000396000f3fe608060405234801561001057600080fd5b50600436106103265760003560e01c80637b0a47ee116101b8578063d3e1574711610104578063ebe2b12b116100a2578063f83d08ba1161007c578063f83d08ba1461091d578063fc0c546a14610925578063fe0d94c11461092d578063fe4b84df1461094a57610326565b8063ebe2b12b146108e7578063ef78d4fd146108ef578063f2fde38b146108f757610326565b8063da35c664116100de578063da35c664146108a3578063df136d65146108ab578063e9fad8ee146108b3578063eb9253c0146108bb57610326565b8063d3e15747146107aa578063d6f0948c146107c7578063d8bff5a51461087d57610326565b8063a3ec138d11610171578063b6549f751161014b578063b6549f7514610775578063c1ba4e591461077d578063c8f33c911461079a578063cd3daf9d146107a257610326565b8063a3ec138d1461070c578063a694fc3a14610732578063ab033ea91461074f57610326565b80637b0a47ee146106765780637b3039651461067e57806380faa57d146106b957806386a50535146106c15780638b876347146106de5780638da5cb5b1461070457610326565b80633c6b16ab116102775780635c0aeb0e11610230578063715018a61161020a578063715018a614610623578063750e443a1461062b57806379502c551461064857806379ec5d3a1461065057610326565b80635c0aeb0e146105d6578063632a9a52146105f557806370a08231146105fd57610326565b80633c6b16ab146105425780633d18b9121461055f5780634d318b0e146105675780634e27e9161461058457806352d6804d146105aa5780635aa6e675146105b257610326565b80630f41e0d2116102e45780631aa3a008116102be5780631aa3a008146104f85780631be05289146105005780632e1a7d4d146105085780633209e9e61461052557610326565b80630f41e0d2146104cc5780631703a018146104e857806318160ddd146104f057610326565b80628cc2621461032b578063013cf08b146103635780630700037d146104595780630d15fd771461047f5780630d68b761146104875780630f3a9f65146104af575b600080fd5b6103516004803603602081101561034157600080fd5b50356001600160a01b0316610967565b60408051918252519081900360200190f35b6103806004803603602081101561037957600080fd5b50356109d5565b604051808d81526020018c6001600160a01b031681526020018b81526020018a8152602001898152602001888152602001876001600160a01b03168152602001806020018681526020018581526020018481526020018315158152602001828103825287818151815260200191508051906020019080838360005b838110156104135781810151838201526020016103fb565b50505050905090810190601f1680156104405780820380516001836020036101000a031916815260200191505b509d505050505050505050505050505060405180910390f35b6103516004803603602081101561046f57600080fd5b50356001600160a01b0316610acf565b610351610ae1565b6104ad6004803603602081101561049d57600080fd5b50356001600160a01b0316610ae7565b005b6104ad600480360360208110156104c557600080fd5b5035610b73565b6104d4610bc5565b604080519115158252519081900360200190f35b610351610bd5565b610351610bdb565b6104ad610be2565b610351610cc7565b6104ad6004803603602081101561051e57600080fd5b5035610cce565b6104ad6004803603602081101561053b57600080fd5b5035610e6b565b6104ad6004803603602081101561055857600080fd5b5035610ebd565b6104ad611037565b6104ad6004803603602081101561057d57600080fd5b5035611166565b6103516004803603602081101561059a57600080fd5b50356001600160a01b03166112a1565b6103516112b3565b6105ba6112b9565b604080516001600160a01b039092168252519081900360200190f35b6104ad600480360360208110156105ec57600080fd5b503515156112c8565b6105ba611333565b6103516004803603602081101561061357600080fd5b50356001600160a01b0316611342565b6104ad61135d565b6104ad6004803603602081101561064157600080fd5b5035611411565b6104d461164c565b6103516004803603602081101561066657600080fd5b50356001600160a01b0316611655565b610351611670565b61069b6004803603602081101561069457600080fd5b5035611676565b60408051938452602084019290925282820152519081900360600190f35b6103516116ee565b6104ad600480360360208110156106d757600080fd5b5035611701565b610351600480360360208110156106f457600080fd5b50356001600160a01b0316611940565b6105ba611952565b6104d46004803603602081101561072257600080fd5b50356001600160a01b0316611961565b6104ad6004803603602081101561074857600080fd5b5035611976565b6104ad6004803603602081101561076557600080fd5b50356001600160a01b0316611ab2565b6104ad611b21565b6104ad6004803603602081101561079357600080fd5b5035611c28565b610351611c7a565b610351611c80565b6104ad600480360360208110156107c057600080fd5b5035611cce565b6104ad600480360360408110156107dd57600080fd5b6001600160a01b03823516919081019060408101602082013564010000000081111561080857600080fd5b82018360208201111561081a57600080fd5b8035906020019184600183028401116401000000008311171561083c57600080fd5b91908080601f016020809104026020016040519081016040528093929190818152602001838380828437600092019190915250929550611d20945050505050565b6103516004803603602081101561089357600080fd5b50356001600160a01b0316611f42565b610351611f54565b610351611f5a565b6104ad611f60565b6104ad600480360360408110156108d157600080fd5b506001600160a01b038135169060200135611f7b565b61035161207a565b610351612080565b6104ad6004803603602081101561090d57600080fd5b50356001600160a01b0316612086565b610351612191565b6105ba612197565b6104ad6004803603602081101561094357600080fd5b50356121a6565b6104ad6004803603602081101561096057600080fd5b503561230a565b6001600160a01b03811660009081526017602090815260408083205460169092528220546109cf91906109c990670de0b6b3a7640000906109c3906109b4906109ae611c80565b90612385565b6109bd88611342565b906123ce565b90612427565b90612469565b92915050565b6013602090815260009182526040918290208054600180830154600484015460058501546006860154600787015460088801546009890180548c5160026101009a8316159a909a026000190190911698909804601f81018c90048c0289018c01909c528b8852979a6001600160a01b039687169a959994989397929690911694919291830182828015610aa95780601f10610a7e57610100808354040283529160200191610aa9565b820191906000526020600020905b815481529060010190602001808311610a8c57829003601f168201915b50505050600a830154600b840154600c850154600d909501549394919390925060ff168c565b60176020526000908152604090205481565b60105481565b610aef6124c3565b6003546001600160a01b03908116911614610b51576040805162461bcd60e51b815260206004820181905260248201527f4f776e61626c653a2063616c6c6572206973206e6f7420746865206f776e6572604482015290519081900360640190fd5b600480546001600160a01b0319166001600160a01b0392909216919091179055565b6011546001600160a01b03163314610bc0576040805162461bcd60e51b815260206004820152600b60248201526a21676f7665726e616e636560a81b604482015290519081900360640190fd5b600b55565b600454600160a01b900460ff1681565b600e5481565b6001545b90565b3360009081526015602052604090205460ff1615610c2f576040805162461bcd60e51b81526020600482015260056024820152643b37ba32b960d91b604482015290519081900360640190fd5b336000818152601560205260409020805460ff19166001179055610c5290611342565b336000908152601460205260409020819055601054610c7091612469565b601081905533600081815260146020908152604091829020548251938452908301528181019290925290517f42bd0b21218b5114f60361fe686fe499033f14f22cb728a08cf9df9b4e60f8cc9181900360600190a1565b62093a8081565b33610cd7611c80565b600955610ce26116ee565b6008556001600160a01b03811615610d2957610cfd81610967565b6001600160a01b0382166000908152601760209081526040808320939093556009546016909152919020555b60008211610d72576040805162461bcd60e51b8152602060048201526011602482015270043616e6e6f74207769746864726177203607c1b604482015290519081900360640190fd5b3360009081526015602052604090205460ff16151560011415610dca5733600090815260146020526040902054610da99083612385565b33600090815260146020526040902055601054610dc69083612385565b6010555b600454600160a01b900460ff16610e2857336000908152601260205260409020544311610e28576040805162461bcd60e51b8152602060048201526007602482015266085b1bd8dad95960ca1b604482015290519081900360640190fd5b610e31826124c7565b60408051838152905133917f7084f5476618d8e60b11ef0d7d3f06914655adb8793e28ff7f018d4c76d505d5919081900360200190a25050565b6011546001600160a01b03163314610eb8576040805162461bcd60e51b815260206004820152600b60248201526a21676f7665726e616e636560a81b604482015290519081900360640190fd5b600d55565b6004546001600160a01b0316610ed16124c3565b6001600160a01b031614610f165760405162461bcd60e51b8152600401808060200182810382526021815260200180612a876021913960400191505060405180910390fd5b6000610f20611c80565b600955610f2b6116ee565b6008556001600160a01b03811615610f7257610f4681610967565b6001600160a01b0382166000908152601760209081526040808320939093556009546016909152919020555b600554610f8a906001600160a01b031633308561251f565b6006544210610fa857610fa08262093a80612427565b600755610fea565b600654600090610fb89042612385565b90506000610fd1600754836123ce90919063ffffffff16565b9050610fe462093a806109c38684612469565b60075550505b426008819055610ffd9062093a80612469565b6006556040805183815290517fde88a922e0d3b88b24e9623efeb464919c6bf9f66857a65e2bfcf2ce87a9433d9181900360200190a15050565b33611040611c80565b60095561104b6116ee565b6008556001600160a01b038116156110925761106681610967565b6001600160a01b0382166000908152601760209081526040808320939093556009546016909152919020555b600454600160a01b900460ff166110ef573360009081526012602052604090205443106110ef576040805162461bcd60e51b8152602060048201526006602482015265085d9bdd195960d21b604482015290519081900360640190fd5b60006110fa33610967565b90508015611162573360008181526017602052604081205560055461112b916001600160a01b03909116908361257f565b60408051828152905133917fe2403640ba68fed3a2f88b7557551d1993f84b99bb10ff833f0cf8db0c5e0486919081900360200190a25b5050565b6000818152601360205260409020600d015460ff1615156001146111b9576040805162461bcd60e51b815260206004820152600560248201526410b7b832b760d91b604482015290519081900360640190fd5b6000818152601360205260409020600701544311611207576040805162461bcd60e51b8152602060048083019190915260248201526308595b9960e21b604482015290519081900360640190fd5b60008061121383611676565b506000858152601360205260408120600c810154600b90910154939550919350911061123d575060015b600084815260136020908152604091829020600d01805460ff19169055815185815290810184905282151581830152905185917f66ab4d2a1f6db1c01d1d46ab61a9c333b5a4de5e75cc7a68e1495b4badbd009b919081900360600190a250505050565b60126020526000908152604090205481565b600d5481565b6011546001600160a01b031681565b6011546001600160a01b03163314611315576040805162461bcd60e51b815260206004820152600b60248201526a21676f7665726e616e636560a81b604482015290519081900360640190fd5b60048054911515600160a01b0260ff60a01b19909216919091179055565b6000546001600160a01b031681565b6001600160a01b031660009081526002602052604090205490565b6113656124c3565b6003546001600160a01b039081169116146113c7576040805162461bcd60e51b815260206004820181905260248201527f4f776e61626c653a2063616c6c6572206973206e6f7420746865206f776e6572604482015290519081900360640190fd5b6003546040516000916001600160a01b0316907f8be0079c531659141344cd1fd0a4f28419497f9722a3daafe3b4186f6b6457e0908390a3600380546001600160a01b0319169055565b600081815260136020526040902060060154431161145f576040805162461bcd60e51b81526020600482015260066024820152650f1cdd185c9d60d21b604482015290519081900360640190fd5b60008181526013602052604090206007015443106114ad576040805162461bcd60e51b815260206004808301919091526024820152630f995b9960e21b604482015290519081900360640190fd5b60008181526013602090815260408083203384526002019091529020548015611514576000828152601360205260409020600401546114ec9082612385565b6000838152601360209081526040808320600481019490945533835260029093019052908120555b6000828152601360209081526040808320338085526003909101909252822054611541916109ae90611655565b6000848152601360205260409020600501549091506115609082612469565b60008481526013602052604090206005015561157b33611655565b600084815260136020818152604080842033855260038101835290842094909455601054878452919052600a830155600582015460049092015490916115c19190612469565b6010549091506115d7906109c3836127106123ce565b6000858152601360205260409020600b0155600c546115f69043612469565b33600081815260126020908152604080832094909455835191825281018590528251919287927f88d35328232823f54954b6627e9f732371656f6daa40cb1b01b27dc7875a7b479281900390910190a350505050565b600f5460ff1681565b6001600160a01b031660009081526014602052604090205490565b60075481565b6000818152601360205260408120600481015460059091015490918061169c8484612469565b90506116ae816109c3866127106123ce565b93506116c0816109c3856127106123ce565b6000868152601360205260409020600a01549093506116e5906109c3836127106123ce565b93959294505050565b60006116fc426006546125d6565b905090565b600081815260136020526040902060060154431161174f576040805162461bcd60e51b81526020600482015260066024820152650f1cdd185c9d60d21b604482015290519081900360640190fd5b600081815260136020526040902060070154431061179d576040805162461bcd60e51b815260206004808301919091526024820152630f995b9960e21b604482015290519081900360640190fd5b60008181526013602090815260408083203384526003019091529020548015611804576000828152601360205260409020600501546117dc9082612385565b6000838152601360209081526040808320600581019490945533835260039093019052908120555b6000828152601360209081526040808320338085526002909101909252822054611831916109ae90611655565b6000848152601360205260409020600401549091506118509082612469565b60008481526013602052604090206004015561186b33611655565b600084815260136020818152604080842033855260028101835290842094909455601054878452919052600a830155600582015460049092015490916118b19190612469565b6010549091506118c7906109c3836127106123ce565b6000858152601360205260409020600b0155600c546118e69043612469565b33600081815260126020908152604091829020939093558051600181529283018590528051919287927f88d35328232823f54954b6627e9f732371656f6daa40cb1b01b27dc7875a7b47929181900390910190a350505050565b60166020526000908152604090205481565b6003546001600160a01b031690565b60156020526000908152604090205460ff1681565b3361197f611c80565b60095561198a6116ee565b6008556001600160a01b038116156119d1576119a581610967565b6001600160a01b0382166000908152601760209081526040808320939093556009546016909152919020555b60008211611a17576040805162461bcd60e51b815260206004820152600e60248201526d043616e6e6f74207374616b6520360941b604482015290519081900360640190fd5b3360009081526015602052604090205460ff16151560011415611a6f5733600090815260146020526040902054611a4e9083612469565b33600090815260146020526040902055601054611a6b9083612469565b6010555b611a78826125ec565b60408051838152905133917f9e71bc8eea02a63969f509818f2dafb9254532904319f9dbda79b67bd34a5f3d919081900360200190a25050565b6011546001600160a01b03163314611aff576040805162461bcd60e51b815260206004820152600b60248201526a21676f7665726e616e636560a81b604482015290519081900360640190fd5b601180546001600160a01b0319166001600160a01b0392909216919091179055565b3360009081526015602052604090205460ff161515600114611b73576040805162461bcd60e51b815260206004820152600660248201526510bb37ba32b960d11b604482015290519081900360640190fd5b336000908152601560209081526040808320805460ff1916905560149091529020546010541015611ba8576000601055611bc8565b33600090815260146020526040902054601054611bc491612385565b6010555b336000818152601460209081526040918290205460105483519485529184015282820152517e330fa0724b41c0d187cfad0aa7ff5fa2ff7e742995886f55fda6f5909914b89181900360600190a133600090815260146020526040812055565b6011546001600160a01b03163314611c75576040805162461bcd60e51b815260206004820152600b60248201526a21676f7665726e616e636560a81b604482015290519081900360640190fd5b600e55565b60085481565b6000611c8a610bdb565b611c975750600954610bdf565b6116fc611cc5611ca5610bdb565b6109c3670de0b6b3a76400006109bd6007546109bd6008546109ae6116ee565b60095490612469565b6011546001600160a01b03163314611d1b576040805162461bcd60e51b815260206004820152600b60248201526a21676f7665726e616e636560a81b604482015290519081900360640190fd5b600c55565b600d54611d2c33611655565b11611d69576040805162461bcd60e51b81526020600482015260086024820152673c6d696e696d756d60c01b604482015290519081900360640190fd5b604051806101800160405280600a548152602001336001600160a01b031681526020016000815260200160008152602001438152602001611db543600b5461246990919063ffffffff16565b81526001600160a01b03808516602080840191909152604080840186905260105460608086019190915260006080808701829052600e5460a080890191909152600160c0988901819052600a805480830190915584526013875292859020895181558987015193810180549489166001600160a01b03199586161790559489015160048601559288015160058501558701516006840155908601516007830155938501516008820180549190941694169390931790915560e08301518051611e8392600985019201906129ac565b50610100820151600a82810191909155610120830151600b80840191909155610140840151600c84015561016090930151600d909201805460ff19169215159290921790915554905460408051928352336020840152438382015260608301919091526001600160a01b0384166080830152517ff3aa81c2323a935a3e72c018c519b8d8b432eeebaa15cbbe5c8305f0f9df6f4d9160a0908290030190a1600c54611f2e9043612469565b336000908152601260205260409020555050565b60146020526000908152604090205481565b600a5481565b60095481565b611f71611f6c33611342565b610cce565b611f79611037565b565b6011546001600160a01b03163314611fc8576040805162461bcd60e51b815260206004820152600b60248201526a21676f7665726e616e636560a81b604482015290519081900360640190fd5b6005546001600160a01b0383811691161415612014576040805162461bcd60e51b81526020600482015260066024820152651c995dd85c9960d21b604482015290519081900360640190fd5b6000546001600160a01b0383811691161415612060576040805162461bcd60e51b81526020600480830191909152602482015263766f746560e01b604482015290519081900360640190fd5b601154611162906001600160a01b0384811691168361257f565b60065481565b600b5481565b61208e6124c3565b6003546001600160a01b039081169116146120f0576040805162461bcd60e51b815260206004820181905260248201527f4f776e61626c653a2063616c6c6572206973206e6f7420746865206f776e6572604482015290519081900360640190fd5b6001600160a01b0381166121355760405162461bcd60e51b8152600401808060200182810382526026815260200180612a406026913960400191505060405180910390fd5b6003546040516001600160a01b038084169216907f8be0079c531659141344cd1fd0a4f28419497f9722a3daafe3b4186f6b6457e090600090a3600380546001600160a01b0319166001600160a01b0392909216919091179055565b600c5481565b6005546001600160a01b031681565b60008060006121b484611676565b6000878152601360205260409020600c01549295509093509150811161220b576040805162461bcd60e51b81526020600482015260076024820152662171756f72756d60c81b604482015290519081900360640190fd5b6000848152601360205260409020600701544311612259576040805162461bcd60e51b8152602060048083019190915260248201526308595b9960e21b604482015290519081900360640190fd5b6000848152601360205260409020600d015460ff161515600114156122815761228184611166565b600084815260136020526040808220600801548151636009bfbd60e11b81526004810188905260248101879052604481018690526064810185905291516001600160a01b039091169263c0137f7a926084808201939182900301818387803b1580156122ec57600080fd5b505af1158015612300573d6000803e3d6000fd5b5050505050505050565b600f5460ff161515600114612350576040805162461bcd60e51b815260206004820152600760248201526621636f6e66696760c81b604482015290519081900360640190fd5b600f805460ff19169055600a55601180546001600160a01b03191673c487e91aac75d048eeaca7360e479ae7ccea0b86179055565b60006123c783836040518060400160405280601e81526020017f536166654d6174683a207375627472616374696f6e206f766572666c6f770000815250612642565b9392505050565b6000826123dd575060006109cf565b828202828482816123ea57fe5b04146123c75760405162461bcd60e51b8152600401808060200182810382526021815260200180612a666021913960400191505060405180910390fd5b60006123c783836040518060400160405280601a81526020017f536166654d6174683a206469766973696f6e206279207a65726f0000000000008152506126d9565b6000828201838110156123c7576040805162461bcd60e51b815260206004820152601b60248201527f536166654d6174683a206164646974696f6e206f766572666c6f770000000000604482015290519081900360640190fd5b3390565b6001546124d49082612385565b600155336000908152600260205260409020546124f19082612385565b33600081815260026020526040812092909255905461251c916001600160a01b03909116908361257f565b50565b604080516001600160a01b0380861660248301528416604482015260648082018490528251808303909101815260849091019091526020810180516001600160e01b03166323b872dd60e01b17905261257990859061273e565b50505050565b604080516001600160a01b038416602482015260448082018490528251808303909101815260649091019091526020810180516001600160e01b031663a9059cbb60e01b1790526125d190849061273e565b505050565b60008183106125e557816123c7565b5090919050565b6001546125f99082612469565b600155336000908152600260205260409020546126169082612469565b33600081815260026020526040812092909255905461251c916001600160a01b0390911690308461251f565b600081848411156126d15760405162461bcd60e51b81526004018080602001828103825283818151815260200191508051906020019080838360005b8381101561269657818101518382015260200161267e565b50505050905090810190601f1680156126c35780820380516001836020036101000a031916815260200191505b509250505060405180910390fd5b505050900390565b600081836127285760405162461bcd60e51b815260206004820181815283516024840152835190928392604490910191908501908083836000831561269657818101518382015260200161267e565b50600083858161273457fe5b0495945050505050565b6060612793826040518060400160405280602081526020017f5361666545524332303a206c6f772d6c6576656c2063616c6c206661696c6564815250856001600160a01b03166127ef9092919063ffffffff16565b8051909150156125d1578080602001905160208110156127b257600080fd5b50516125d15760405162461bcd60e51b815260040180806020018281038252602a815260200180612aa8602a913960400191505060405180910390fd5b60606127fe8484600085612806565b949350505050565b606061281185612973565b612862576040805162461bcd60e51b815260206004820152601d60248201527f416464726573733a2063616c6c20746f206e6f6e2d636f6e7472616374000000604482015290519081900360640190fd5b60006060866001600160a01b031685876040518082805190602001908083835b602083106128a15780518252601f199092019160209182019101612882565b6001836020036101000a03801982511681845116808217855250505050505090500191505060006040518083038185875af1925050503d8060008114612903576040519150601f19603f3d011682016040523d82523d6000602084013e612908565b606091505b5091509150811561291c5791506127fe9050565b80511561292c5780518082602001fd5b60405162461bcd60e51b815260206004820181815286516024840152865187939192839260440191908501908083836000831561269657818101518382015260200161267e565b6000813f7fc5d2460186f7233c927e7db2dcc703c0e500b653ca82273b7bfad8045d85a4708181148015906127fe575050151592915050565b828054600181600116156101000203166002900490600052602060002090601f016020900481019282601f106129ed57805160ff1916838001178555612a1a565b82800160010185558215612a1a579182015b82811115612a1a5782518255916020019190600101906129ff565b50612a26929150612a2a565b5090565b5b80821115612a265760008155600101612a2b56fe4f776e61626c653a206e6577206f776e657220697320746865207a65726f2061646472657373536166654d6174683a206d756c7469706c69636174696f6e206f766572666c6f7743616c6c6572206973206e6f742072657761726420646973747269627574696f6e5361666545524332303a204552433230206f7065726174696f6e20646964206e6f742073756363656564a2646970667358221220ead49bad5fc5b74070ff9cd024661c0153ceb1046b48f7c603e8cf91028558dd64736f6c634300060c0033",
  "immutableReferences": {},
  "source": "// SPDX-License-Identifier: MIT\n\n/*\n   ____            __   __        __   _\n  / __/__ __ ___  / /_ / /  ___  / /_ (_)__ __\n _\\ \\ / // // _ \\/ __// _ \\/ -_)/ __// / \\ \\ /\n/___/ \\_, //_//_/\\__//_//_/\\__/ \\__//_/ /_\\_\\\n     /___/\n\n* Synthetix: YFIRewards.sol\n*\n* Docs: https://docs.synthetix.io/\n*\n*\n* MIT License\n* ===========\n*\n* Copyright (c) 2020 Synthetix\n*\n* Permission is hereby granted, free of charge, to any person obtaining a copy\n* of this software and associated documentation files (the \"Software\"), to deal\n* in the Software without restriction, including without limitation the rights\n* to use, copy, modify, merge, publish, distribute, sublicense, and/or sell\n* copies of the Software, and to permit persons to whom the Software is\n* furnished to do so, subject to the following conditions:\n*\n* The above copyright notice and this permission notice shall be included in all\n* copies or substantial portions of the Software.\n*\n* THE SOFTWARE IS PROVIDED \"AS IS\", WITHOUT WARRANTY OF ANY KIND, EXPRESS OR\n* IMPLIED, INCLUDING BUT NOT LIMITED TO THE WARRANTIES OF MERCHANTABILITY,\n* FITNESS FOR A PARTICULAR PURPOSE AND NONINFRINGEMENT. IN NO EVENT SHALL THE\n* AUTHORS OR COPYRIGHT HOLDERS BE LIABLE FOR ANY CLAIM, DAMAGES OR OTHER\n* LIABILITY, WHETHER IN AN ACTION OF CONTRACT, TORT OR OTHERWISE, ARISING FROM,\n* OUT OF OR IN CONNECTION WITH THE SOFTWARE OR THE USE OR OTHER DEALINGS IN THE\n*/\npragma solidity ^0.6.2;\n\nimport '@openzeppelin/contracts/math/Math.sol';\nimport '@openzeppelin/contracts/math/SafeMath.sol';\nimport '@openzeppelin/contracts/GSN/Context.sol';\nimport '@openzeppelin/contracts/token/ERC20/IERC20.sol';\nimport '@openzeppelin/contracts/token/ERC20/SafeERC20.sol';\nimport '@openzeppelin/contracts/utils/Address.sol';\nimport \"./CurveRewards.sol\";\nimport \"./IRewardDistributionRecipient.sol\";\nimport \"./IExecutor.sol\";\n\ncontract YearnGovernance is\nLPTokenWrapper,\nIRewardDistributionRecipient\n{\n    event NewProposal(uint id, address creator, uint start, uint duration, address executor);\n    event Vote(uint indexed id, address indexed voter, bool vote, uint weight);\n    event ProposalFinished(uint indexed id, uint _for, uint _against, bool quorumReached);\n    event RegisterVoter(address voter, uint votes, uint totalVotes);\n    event RevokeVoter(address voter, uint votes, uint totalVotes);\n    event RewardAdded(uint256 reward);\n    event Staked(address indexed user, uint256 amount);\n    event Withdrawn(address indexed user, uint256 amount);\n    event RewardPaid(address indexed user, uint256 reward);\n\n    struct Proposal {\n        uint id;\n        address proposer;\n        mapping(address => uint) forVotes;\n        mapping(address => uint) againstVotes;\n        uint totalForVotes;\n        uint totalAgainstVotes;\n        uint start; // block start;\n        uint end; // start + period\n        address executor;\n        string hash;\n        uint totalVotesAvailable;\n        uint quorum;\n        uint quorumRequired;\n        bool open;\n    }\n\n    /* Fee collection for any other token */\n\n    function seize(IERC20 _token, uint amount) external {\n        require(msg.sender == governance, \"!governance\");\n        require(_token != token, \"reward\");\n        require(_token != vote, \"vote\");\n        _token.safeTransfer(governance, amount);\n    }\n\n    /* Fees breaker, to protect withdraws if anything ever goes wrong */\n\n    bool public breaker = false;\n\n    function setBreaker(bool _breaker) external {\n        require(msg.sender == governance, \"!governance\");\n        breaker = _breaker;\n    }\n\n    /* Default rewards contract */\n    IERC20 public token = IERC20(0xdF5e0e81Dff6FAF3A7e52BA697820c5e32D806A8);\n\n    uint256 public constant DURATION = 7 days;\n\n    uint256 public periodFinish = 0;\n    uint256 public rewardRate = 0;\n    uint256 public lastUpdateTime;\n    uint256 public rewardPerTokenStored;\n    uint public proposalCount;\n    uint public period = 17280; // voting period in blocks ~ 17280 3 days for 15s/block\n    uint public lock = 17280; // vote lock in blocks ~ 17280 3 days for 15s/block\n    uint public minimum = 1e18;\n    uint public quorum = 2000;\n    bool public config = true;\n    uint public totalVotes;\n\n    address public governance;\n\n    /* Modifications for proposals */\n    mapping(address => uint) public voteLock; // period that your sake it locked to keep it for voting\n    mapping(uint => Proposal) public proposals;\n    mapping(address => uint) public votes;\n    mapping(address => bool) public voters;\n    mapping(address => uint256) public userRewardPerTokenPaid;\n    mapping(address => uint256) public rewards;\n\n    modifier updateReward(address account) {\n        rewardPerTokenStored = rewardPerToken();\n        lastUpdateTime = lastTimeRewardApplicable();\n        if (account != address(0)) {\n            rewards[account] = earned(account);\n            userRewardPerTokenPaid[account] = rewardPerTokenStored;\n        }\n        _;\n    }\n\n    function setGovernance(address _governance)\n    public\n    {\n        require(msg.sender == governance, \"!governance\");\n        governance = _governance;\n    }\n\n    function setQuorum(uint _quorum)\n    public\n    {\n        require(msg.sender == governance, \"!governance\");\n        quorum = _quorum;\n    }\n\n    function setMinimum(uint _minimum)\n    public\n    {\n        require(msg.sender == governance, \"!governance\");\n        minimum = _minimum;\n    }\n\n    function setPeriod(uint _period)\n    public\n    {\n        require(msg.sender == governance, \"!governance\");\n        period = _period;\n    }\n\n    function setLock(uint _lock)\n    public\n    {\n        require(msg.sender == governance, \"!governance\");\n        lock = _lock;\n    }\n\n    function initialize(uint id)\n    public\n    {\n        require(config == true, \"!config\");\n        config = false;\n        proposalCount = id;\n        governance = 0xc487E91aac75D048EeACA7360E479Ae7cCEa0b86;\n    }\n\n    function propose(address executor, string memory hash)\n    public\n    {\n        require(votesOf(msg.sender) > minimum, \"<minimum\");\n        proposals[proposalCount++] = Proposal({\n        id : proposalCount,\n        proposer : msg.sender,\n        totalForVotes : 0,\n        totalAgainstVotes : 0,\n        start : block.number,\n        end : period.add(block.number),\n        executor : executor,\n        hash : hash,\n        totalVotesAvailable : totalVotes,\n        quorum : 0,\n        quorumRequired : quorum,\n        open : true\n        });\n\n        emit NewProposal(proposalCount, msg.sender, block.number, period, executor);\n        voteLock[msg.sender] = lock.add(block.number);\n    }\n\n    function execute(uint id)\n    public\n    {\n        (uint _for, uint _against, uint _quorum) = getStats(id);\n        require(proposals[id].quorumRequired < _quorum, \"!quorum\");\n        require(proposals[id].end < block.number, \"!end\");\n        if (proposals[id].open == true) {\n            tallyVotes(id);\n        }\n        IExecutor(proposals[id].executor).execute(id, _for, _against, _quorum);\n    }\n\n    function getStats(uint id)\n    public view\n    returns (uint _for, uint _against, uint _quorum)\n    {\n        _for = proposals[id].totalForVotes;\n        _against = proposals[id].totalAgainstVotes;\n\n        uint _total = _for.add(_against);\n        _for = _for.mul(10000).div(_total);\n        _against = _against.mul(10000).div(_total);\n\n        _quorum = _total.mul(10000).div(proposals[id].totalVotesAvailable);\n    }\n\n    function tallyVotes(uint id)\n    public\n    {\n        require(proposals[id].open == true, \"!open\");\n        require(proposals[id].end < block.number, \"!end\");\n\n        (uint _for, uint _against,) = getStats(id);\n        bool _quorum = false;\n        if (proposals[id].quorum >= proposals[id].quorumRequired) {\n            _quorum = true;\n        }\n        proposals[id].open = false;\n        emit ProposalFinished(id, _for, _against, _quorum);\n    }\n\n    function votesOf(address voter)\n    public view\n    returns (uint)\n    {\n        return votes[voter];\n    }\n\n    function register()\n    public\n    {\n        require(voters[msg.sender] == false, \"voter\");\n        voters[msg.sender] = true;\n        votes[msg.sender] = balanceOf(msg.sender);\n        totalVotes = totalVotes.add(votes[msg.sender]);\n        emit RegisterVoter(msg.sender, votes[msg.sender], totalVotes);\n    }\n\n    function revoke()\n    public\n    {\n        require(voters[msg.sender] == true, \"!voter\");\n        voters[msg.sender] = false;\n        if (totalVotes < votes[msg.sender]) {\n            //edge case, should be impossible, but this is defi\n            totalVotes = 0;\n        } else {\n            totalVotes = totalVotes.sub(votes[msg.sender]);\n        }\n        emit RevokeVoter(msg.sender, votes[msg.sender], totalVotes);\n        votes[msg.sender] = 0;\n    }\n\n    function voteFor(uint id)\n    public\n    {\n        require(proposals[id].start < block.number, \"<start\");\n        require(proposals[id].end > block.number, \">end\");\n\n        uint _against = proposals[id].againstVotes[msg.sender];\n        if (_against > 0) {\n            proposals[id].totalAgainstVotes = proposals[id].totalAgainstVotes.sub(_against);\n            proposals[id].againstVotes[msg.sender] = 0;\n        }\n\n        uint vote = votesOf(msg.sender).sub(proposals[id].forVotes[msg.sender]);\n        proposals[id].totalForVotes = proposals[id].totalForVotes.add(vote);\n        proposals[id].forVotes[msg.sender] = votesOf(msg.sender);\n\n        proposals[id].totalVotesAvailable = totalVotes;\n        uint _votes = proposals[id].totalForVotes.add(proposals[id].totalAgainstVotes);\n        proposals[id].quorum = _votes.mul(10000).div(totalVotes);\n\n        voteLock[msg.sender] = lock.add(block.number);\n\n        emit Vote(id, msg.sender, true, vote);\n    }\n\n    function voteAgainst(uint id)\n    public\n    {\n        require(proposals[id].start < block.number, \"<start\");\n        require(proposals[id].end > block.number, \">end\");\n\n        uint _for = proposals[id].forVotes[msg.sender];\n        if (_for > 0) {\n            proposals[id].totalForVotes = proposals[id].totalForVotes.sub(_for);\n            proposals[id].forVotes[msg.sender] = 0;\n        }\n\n        uint vote = votesOf(msg.sender).sub(proposals[id].againstVotes[msg.sender]);\n        proposals[id].totalAgainstVotes = proposals[id].totalAgainstVotes.add(vote);\n        proposals[id].againstVotes[msg.sender] = votesOf(msg.sender);\n\n        proposals[id].totalVotesAvailable = totalVotes;\n        uint _votes = proposals[id].totalForVotes.add(proposals[id].totalAgainstVotes);\n        proposals[id].quorum = _votes.mul(10000).div(totalVotes);\n\n        voteLock[msg.sender] = lock.add(block.number);\n\n        emit Vote(id, msg.sender, false, vote);\n    }\n\n    function lastTimeRewardApplicable()\n    public view\n    returns (uint256)\n    {\n        return Math.min(block.timestamp, periodFinish);\n    }\n\n    function rewardPerToken()\n    public view\n    returns (uint256)\n    {\n        if (totalSupply() == 0) {\n            return rewardPerTokenStored;\n        }\n        return\n        rewardPerTokenStored.add(\n            lastTimeRewardApplicable()\n            .sub(lastUpdateTime)\n            .mul(rewardRate)\n            .mul(1e18)\n            .div(totalSupply())\n        );\n    }\n\n    function earned(address account)\n    public view\n    returns (uint256)\n    {\n        return\n        balanceOf(account)\n        .mul(rewardPerToken().sub(userRewardPerTokenPaid[account]))\n        .div(1e18)\n        .add(rewards[account]);\n    }\n\n    // stake visibility is public as overriding LPTokenWrapper's stake() function\n    function stake(uint256 amount)\n    public\n    override\n    updateReward(msg.sender)\n    {\n        require(amount > 0, \"Cannot stake 0\");\n        if (voters[msg.sender] == true) {\n            votes[msg.sender] = votes[msg.sender].add(amount);\n            totalVotes = totalVotes.add(amount);\n        }\n        super.stake(amount);\n        emit Staked(msg.sender, amount);\n    }\n\n    function withdraw(uint256 amount)\n    public\n    override\n    updateReward(msg.sender)\n    {\n        require(amount > 0, \"Cannot withdraw 0\");\n        if (voters[msg.sender] == true) {\n            votes[msg.sender] = votes[msg.sender].sub(amount);\n            totalVotes = totalVotes.sub(amount);\n        }\n        if (breaker == false) {\n            require(voteLock[msg.sender] < block.number, \"!locked\");\n        }\n        super.withdraw(amount);\n        emit Withdrawn(msg.sender, amount);\n    }\n\n    function exit()\n    external\n    {\n        withdraw(balanceOf(msg.sender));\n        getReward();\n    }\n\n    function getReward()\n    public\n    updateReward(msg.sender)\n    {\n        if (breaker == false) {\n            require(voteLock[msg.sender] > block.number, \"!voted\");\n        }\n        uint256 reward = earned(msg.sender);\n        if (reward > 0) {\n            rewards[msg.sender] = 0;\n            token.safeTransfer(msg.sender, reward);\n            emit RewardPaid(msg.sender, reward);\n        }\n    }\n\n    function notifyRewardAmount(uint256 reward)\n    external\n    override\n    onlyRewardDistribution\n    updateReward(address(0))\n    {\n        IERC20(token).safeTransferFrom(msg.sender, address(this), reward);\n        if (block.timestamp >= periodFinish) {\n            rewardRate = reward.div(DURATION);\n        } else {\n            uint256 remaining = periodFinish.sub(block.timestamp);\n            uint256 leftover = remaining.mul(rewardRate);\n            rewardRate = reward.add(leftover).div(DURATION);\n        }\n        lastUpdateTime = block.timestamp;\n        periodFinish = block.timestamp.add(DURATION);\n        emit RewardAdded(reward);\n    }\n}\n",
  "sourcePath": "/Users/sebastian/projects/bancor/gov-contracts/contracts/YearnGovernance.sol",
  "compiler": {
    "name": "solc",
    "version": "0.6.12+commit.27d51765.Emscripten.clang"
  },
  "schemaVersion": "3.2.4",
  "updatedAt": "2020-09-09T09:09:17.192Z",
  "networkType": "ethereum",
  "devdoc": {
    "kind": "dev",
    "methods": {
      "owner()": {
        "details": "Returns the address of the current owner."
      },
      "renounceOwnership()": {
        "details": "Leaves the contract without owner. It will not be possible to call `onlyOwner` functions anymore. Can only be called by the current owner. NOTE: Renouncing ownership will leave the contract without an owner, thereby removing any functionality that is only available to the owner."
      },
      "transferOwnership(address)": {
        "details": "Transfers ownership of the contract to a new account (`newOwner`). Can only be called by the current owner."
      }
    },
    "version": 1
  },
  "userdoc": {
    "kind": "user",
    "methods": {},
    "version": 1
  }
}